:020000040800F2
:1000000000200020314F0008814F0008814F000878
:1000100000000000000000000000000000000000E0
:10002000000000000000000000000000F543000890
:10003000000000000000000061440008B149000811
:10004000814F0008814F0008814F0008814F000850
:10005000814F0008814F0008814F0008814F000840
:10006000814F0008814F0008814F0008814F000830
:10007000814F0008814F000800000000814F0008F8
:1000800000000000814F0008000000000000000098
:10009000814F000800000000B9490008814F0008A6
:1000A000814F0008814F0008814F0008814F0008F0
:1000B000814F0008814F0008814F0008C94900089E
:1000C00010B5064C2378002B07D1054B002B02D02E
:1000D000044800E000BF0123237010BD5C01002034
:1000E00000000000D04F0008084B10B5002B03D0D3
:1000F0000749084800E000BF07480368002B00D10B
:1001000010BD064B002BFBD09847F9E7000000001C
:1001100060010020D04F00085C01002000000000BA
:10012000002243088B4274D303098B425FD3030A36
:100130008B4244D3030B8B4228D3030C8B420DD349
:10014000FF22090212BA030C8B4202D312120902D7
:1001500065D0030B8B4219D300E0090AC30B8B4215
:1001600001D3CB03C01A5241830B8B4201D38B03C3
:10017000C01A5241430B8B4201D34B03C01A524168
:10018000030B8B4201D30B03C01A5241C30A8B42AB
:1001900001D3CB02C01A5241830A8B4201D38B0296
:1001A000C01A5241430A8B4201D34B02C01A52413A
:1001B000030A8B4201D30B02C01A5241CDD2C309AC
:1001C0008B4201D3CB01C01A524183098B4201D328
:1001D0008B01C01A524143098B4201D34B01C01A13
:1001E000524103098B4201D30B01C01A5241C3088B
:1001F0008B4201D3CB00C01A524183088B4201D3FA
:100200008B00C01A524143088B4201D34B00C01AE5
:100210005241411A00D20146524110467047FFE751
:1002200001B5002000F006F802BDC0460029F7D055
:1002300076E770477047C046002B11D1002A0FD1D6
:10024000002900D1002802D00021C943081C07B4AE
:10025000024802A14018029003BDC046D9FFFFFF2B
:1002600003B4684601B5029800F006F8019B9E466B
:1002700002B00CBC7047C046F0B54D4656464446E9
:100280005F46F0B4924683B004000D0099468B425D
:100290002FD82CD04946504600F0AEF82900060071
:1002A000200000F0A9F8331A9846203B9B4600D561
:1002B00074E053465A4693401F00534642469340CB
:1002C0001E00AF4229D826D05B46A41BBD41002B9F
:1002D00000DA79E0002200230092019301235A46BC
:1002E00093400193012342469340009319E08242D8
:1002F000D0D900220023009201930C9B002B01D047
:100300001C605D600098019903B03CBC9046994622
:10031000A246AB46F0BDA342D6D9002200230092EC
:1003200001934346002BE8D0FB0772081A43464668
:100330007B080EE0AB4201D1A2420CD8A41A9D4129
:10034000012024196D410021013E24184D41002E49
:1003500006D0AB42EED9013E24196D41002EF8D1F2
:100360005B460098019900196941002B22DB2B00A4
:100370005A46D3402A004446E2401C005B46150022
:10038000002B2CDB26009E40330026004746BE4053
:100390003200801A994100900191AEE74246202335
:1003A0009B1A5246DA40414613004A468A401700DB
:1003B0001F4382E7424620239B1A2A0046469A4062
:1003C0002300F3401343D5E74246202300219B1A24
:1003D0000022009101920122DA40019282E7424616
:1003E000202326009B1ADE402F00B4469740664625
:1003F0003B003343C9E7C04610B5002903D100F0E4
:1004000007F8203002E0081C00F002F810BDC046DA
:100410001C2101231B04984201D3000C10391B0A34
:10042000984201D3000A08391B09984201D30009F8
:10043000043902A2105C40187047C046040302024F
:1004400001010101000000000000000010B5064A93
:10045000116840230B431360002004F071FA04F08C
:100460004FFA002010BDC04600200240024A136827
:10047000013313607047C046E0100020014B18683C
:100480007047C046E010002070B5002817DAC0B2EF
:100490000F230340083B9B0806339B00114A9446F8
:1004A00063445A6803242040C000FC342500854082
:1004B000AA438901214081401143596010E083081B
:1004C000094DC0339B005C5903221040C000FF2639
:1004D0003200824094438901314081402143595187
:1004E00070BDC04600ED00E000E100E01F231840B1
:1004F0001E3B8340014A13607047C04600E100E0A4
:1005000001380A4B98420FD8094A506009490B6AD2
:100510001B021B0AC020000603430B6200239360EA
:1005200007331360002000E001207047FFFFFF0049
:1005300010E000E000ED00E0042805D1054A116854
:1005400004230B43136004E0024A136804218B4325
:100550001360704710E000E0F0B54F464646C0B467
:100560000023ACE001249C40224000D1A6E04D686D
:10057000022D01D0122D15D1DF080837BF003D58DC
:10058000A94607251D40AD00A8460F26AE40B4463B
:100590004E466546AE43B4460E694546AE40654696
:1005A00035433D504D686E1E012E03D9112D01D0EB
:1005B000122D11D185685F000326BE40B543CE6879
:1005C000BE40354385604668A6434C682509012432
:1005D0002C409C403443446006685F00032425009F
:1005E000BD40ED432E40B4464E683440BC406646A4
:1005F00034430460C46825408C68BC402543C56012
:100600004C68E4005AD5324D6E6B012434436C6360
:100610009C08A51CAD002F4EAF5903261E40B50007
:100620000F26AE40B743A026F605B0420DD02A4EA5
:10063000B0420CD0294EB0420BD0294EB0420AD065
:10064000284EB04209D1052608E0002606E0012622
:1006500004E0022602E0032600E00626AE40350054
:100660003D430234A4001B4EA5511F4C2568D443C2
:1006700026002E404F68FF0301D515432E001A4D6A
:100680002E606D682E0026404F68BF0301D51543CC
:100690002E00154D6E60AD682E0026404F68FF029B
:1006A00001D515432E00104DAE60ED682C404E680C
:1006B000B60201D52A4314000B4AD46001330A68FC
:1006C0001400DC4000D04DE70CBC90469946F0BDCC
:1006D00000100240000001400004005000080050DB
:1006E000000C0050001C005000040140002A01D002
:1006F000816100E08162704770B5041E63D0EA2317
:10070000FF33C35C002B05D10022E933FF33C25411
:1007100004F026FA0322EA23FF33E254002211E018
:10072000D100891A8B00E3181900293101200870C3
:1007300001390A7018002B30002101705963996348
:10074000D963013260688242EAD3002214E0D1000A
:10075000891A8B00E3181D000A35FF350021297026
:10076000013D2A7003352970093529600435296057
:100770001D33FF33196001328242E8D34023012246
:100780002168CA5200222168CA524421206842527C
:100790000C31206842520E4A2168CA521C3B00228A
:1007A000E254EA23FF330122E254E369012B02D130
:1007B000200001F0A7F9236A012B06D1200001F0E7
:1007C0008FF9002002E0012000E0002070BDC0464B
:1007D00000BFFFFF01685822885A034B03439BB2B6
:1007E0008B5200207047C0460080FFFFF4235B005F
:1007F000C35C012B13D00122F4235B00C2540029F7
:1008000005D17F329D3BFF3B0168CA5201E02423A2
:10081000C1540022F4235B00C254002000E00220F7
:100820007047C04670B54DB2002D07DA7F260E40E6
:10083000F400A61BB4002834041907E07F260E40FC
:10084000F400A61BB4000934FF3404197F2631409C
:100850002170ED0F6570E260E370F4235B00C35C10
:10086000012B00D184E10122F4235B00C254E37820
:10087000012B2AD0002B04D0022B0FD0032B17D032
:100880002FE023789B000268944663441988B94A94
:100890000A40802189000A431A8022E023789B00C5
:1008A0000268944663441988B24A0A401A8018E0E4
:1008B00023789B000268944663441988AD4A0A4035
:1008C000C021C9000A431A800BE023789B0002680C
:1008D000944663441988A74A0A408021C9000A4304
:1008E0001A80237899000268944661440D88A24AD0
:1008F0002A40A24D2A4313439BB20B80A37A002BBC
:1009000000D07CE06378002B2DD003685022995AE8
:100910002278D2008A18D3188022D20094466344E9
:10092000A28801218A431A8023789B00026894469A
:1009300063441A88520606D519888F4A0A4090499E
:100940000A4392B21A802178890003689C46614468
:100950000A888C4B1340202253409BB2874A134392
:100960009BB20B80FEE003685025595B2278D200D1
:100970008A18D318844A94466344A28801218A4382
:100980001A8001684B5B2278D2009B185B187F4A63
:1009900094466344E1683E290AD94A0992B2C906DD
:1009A00001D1013A92B2920279490A431A8007E0D2
:1009B0004A0892B2C90701D5013292B292021A8056
:1009C00023789B000268944663441A88520406D533
:1009D0001988694A0A406F490A4392B21A802278FC
:1009E000920003689C46624411886B4B0B40C02107
:1009F00089014B4061490B439BB21380B2E02178DF
:100A0000890003689C4661440A8880235B00134385
:100A1000594A1340594A13439BB20B80036850252F
:100A2000595B2278D2008A18D3188022D2009446CB
:100A30006344E28801218A431A8003685D5B22785F
:100A4000D200AA18D318504A9446634422898A4394
:100A50001A806378002B44D123789B000268944667
:100A600063441A88520406D51988434A0A40494902
:100A70000A4392B21A8023789B000268944663442A
:100A80001A88520606D519883B4A0A403C490A434F
:100A900092B21A802278920003689C4662441188C0
:100AA000354B0B4036490B439BB2138022789200A2
:100AB00003689C4662441188374B0B40C021890172
:100AC0004B402E4D2B439BB2138021788900036845
:100AD0009C4661440B882B4A13402B439BB20B80EE
:100AE00040E023789B000268944663441A885204CD
:100AF00006D51988204A0A4026490A4392B21A802C
:100B000023789B000268944663441A88520606D5EF
:100B10001988194A0A401A490A4392B21A8022785F
:100B2000920003689C4662441188134B0B4019499C
:100B30000B439BB213802178890003689C46614473
:100B40000A88104B1A400D4D2A4392B20A80217830
:100B5000890003689C4661440B880F4A13402B436D
:100B60009BB20B800022F4235B00C254002000E003
:100B7000022070BD8F89FFFF0F0F00008080FFFFF4
:100B8000C080FFFFBF8FFFFF0404000006040000C9
:100B90000080FFFF80C0FFFF8FBFFFFF10B54AB28C
:100BA000002A07DA7F240C40E3001C1BA300283333
:100BB000C31807E07F240C40E3001C1BA30009338B
:100BC000FF33C3187F2421401970D20F5A70F422CA
:100BD0005200825C012A00D1CDE00121F4225200B2
:100BE00081549A7A002A3AD15A78002A1BD01A786E
:100BF000920001688C4662441188490606D5148823
:100C00005E4921405E4C214389B211801A789200DE
:100C100003689C46624411885A4B0B405A490B4367
:100C20009BB21380A1E01A78920001688C4662445E
:100C30001188490406D5148850492140534C21435A
:100C400089B211801A78920003689C466244118828
:100C50004F4B0B404C490B439BB2138085E05A78B5
:100C6000002A41D11A78920001688C4662441188AA
:100C7000490406D5148841492140444C214389B296
:100C800011801A78920001688C46624411884906E6
:100C900006D5148839492140394C214389B2118045
:100CA000197889000268944661440C88334A2240CE
:100CB000334C224392B20A80197889000268944624
:100CC00061440C88324A22402F4C224392B20A805F
:100CD0001978890003689C4661440B88294A1340AF
:100CE00023439BB20B8040E01A78920001688C4647
:100CF00062441188490406D5148820492140234CB8
:100D0000214389B211801A78920001688C466244AE
:100D10001188490606D5148818492140184C2143EA
:100D200089B21180197889000268944661440C8860
:100D3000124A2240154C224392B20A801978890047
:100D40000268944661440C880E4A22400E4C2243AD
:100D500092B20A801978890003689C4661440B8826
:100D60000B4A134023439BB20B800022F4235B0009
:100D7000C254002000E0022010BDC0460F0F00004A
:100D8000C080FFFFBF8FFFFF8080FFFF80C0FFFF9D
:100D90008FBFFFFF70B57F242140CD006D1AAC00DE
:100DA000041925001935FF352A6022001D32FF3253
:100DB0001360043200231360173A13700934FF34B0
:100DC0002170E933FF33C35C012B00D1F0E0012235
:100DD000F4235B00C254CA00521A9300C3181A00CD
:100DE0001D32FF3212681533FF331C68A24209D945
:100DF000CD006D1AAB00C3181D33FF33121B1A60F0
:100E0000220007E0CC00641AA300C3181D33FF338F
:100E100000241C60CC00641AA300C3181333FF33F2
:100E20001B78002B25D104685033E65ACD006D1A8B
:100E3000AB00C3180933FF331B78DB00F3181C1910
:100E40005C4B9C4664443E2A0AD953099BB2D206A5
:100E500001D1013B9BB29B02574A134323808CE094
:100E600053089BB2D20701D501339BB29B0223806A
:100E700083E0CC00641AA300C3180A33FF331B7845
:100E8000002B25D104685033E65ACD006D1AAB0013
:100E9000C3180933FF331B78DB00F3181C19474BC9
:100EA0009C4664443E2A0AD953099BB2D50601D117
:100EB000013B9BB29B02404D2B4323801BE0530818
:100EC0009BB2D50701D501339BB29B02238012E070
:100ED000012B10D1036850241E5BCD006D1AAC00AD
:100EE00004190934FF342478E4003419E318334C2E
:100EF000A44663441A80CC00641AA300C3180A33C2
:100F0000FF331B78002B25D104685033E65ACD00FF
:100F10006D1AAB00C3180933FF331B78DB00F318DD
:100F20001C19244B9C4664443E2A0AD953099BB29F
:100F3000D20601D1013B9BB29B021F4A134323807F
:100F40001BE053089BB2D20701D501339BB29B0231
:100F5000238012E0012B10D1036850241E5BCD00CA
:100F60006D1AAC0004190934FF342478E4003419F4
:100F7000E318104CA44663441A80CB00591A8B0026
:100F8000C3180933FF331A78920003689C46624401
:100F900011880B4B0B40C02189014B4009490B4381
:100FA0009BB213800022F4235B00C254002000E0B7
:100FB000022070BD060400000080FFFF0204000054
:100FC0008FBFFFFF8080FFFF7F231940CA00511AA7
:100FD0008B00C3182133FF331888704710B5F423F2
:100FE0005B00C35C012B50D00122F4235B00C25490
:100FF0004AB2002A07DA7F240C40E3001C1BA3003E
:101000002833C31805E0CC00641AA3000933FF336A
:10101000C31801249C707E3421401970D20F5A707D
:1010200000290DD1890003689C4661440A88184B49
:101030001340184A5340184A13439BB20B801EE0DA
:10104000002A0ED0890003689C4661440A88134B2D
:101050001340102253409BB20F4A13439BB20B80A4
:101060000DE0890003689C4661440A880C4B1340DC
:10107000802252015340084A13439BB20B80002246
:10108000F4235B00C254002000E0022010BDC046E3
:10109000BFBFFFFF101000008080FFFFBF8FFFFF6A
:1010A0008FBFFFFF10B54AB2002A07DA7F240C4039
:1010B000E3001C1BA3002833C31805E0CC00641A0E
:1010C000A3000933FF33C31800249C707F342140F0
:1010D0001970D20F5A70F4225200825C012A49D052
:1010E0000121F422520081545A78002A1ED01A7825
:1010F000920001688C4662441188490606D514881E
:101100001D4921401D4C214389B211801978890065
:1011100003689C4661440A88194B134030225340AF
:101120009BB2184A13439BB20B801DE01A789200C1
:1011300001688C4662441188490406D514880E491A
:101140002140114C214389B211801A789200036822
:101150009C46624411880D4B0B40C02189014B40D5
:1011600008490B439BB213800022F4235B00C25456
:10117000002000E0022010BD0F0F0000C080FFFF24
:10118000BF8FFFFF8080FFFF80C0FFFF8FBFFFFF8B
:1011900030B501335B0810188022D200821807E0B6
:1011A0000D784C7824022C4314800231013B02322A
:1011B000002BF5D130BDC046F8B505007F240C40AA
:1011C000E000001B8100080069188A63CB630023DC
:1011D0000B640B00293301221A7028310C70F423A0
:1011E0005B00EB5C012B00D113E1F4235B00EA54BC
:1011F0002A18D36B526B934207D9E000001B810081
:1012000069189B1ACB63130005E0E100091B8A00F3
:10121000AA180021D163E100091B8A001100AA1855
:1012200032321278002A14D19FB26E18B28D3B0070
:10123000B16B2868FFF7ACFF2A685023D15A2836D3
:101240003378DB00CB189B18734A944663441F80A5
:10125000C5E0E100091B8A00AA1829321278002A89
:1012600024D12A685021565AE000001B81006918D9
:1012700028310978C90071188A1867498C46624478
:101280003E2B0AD9590989B2D80601D1013989B250
:1012900089026248014311801AE0590889B2D807CF
:1012A00001D5013189B28902118011E0012A0FD1E3
:1012B0002A685021565AE000001B81006918283125
:1012C0000978C90071188A1853498C466244138002
:1012D000E100091B8A00AA1829321278002A24D1B9
:1012E0002A685021565AE000001B810069182831F5
:1012F0000978C90071188A1849498C4662443E2B06
:101300000AD9590989B2D80601D1013989B28902AD
:101310004248014311801AE0590889B2D80701D523
:10132000013189B28902118011E0012A0FD12A68A6
:101330005021565AE000001B8100691828310978B5
:10134000C90071188A1836498C466244138028688F
:10135000E100091B8A00AA1828321278920082182C
:101360001288520605D5E100091B8A00AA18128EC0
:1013700004E0E100091B8A00AA18D28D9BB2E100AB
:10138000091B8E00AE19B16BFFF702FF29363378C7
:10139000002B11D1E200121B9300EB1828331A78AE
:1013A00092002B689C46624411881E4B0B401E49DC
:1013B0000B439BB2138012E0012B10D1E200121BF1
:1013C0009300EB1828331A7892002B689C466244ED
:1013D0001188144B0B4015490B439BB21380E1005D
:1013E0000C1BA300EB182833197889002B689C4646
:1013F00061440A880E4B1340302253409BB20D4A81
:1014000013439BB20B800022F4235B00EA540020BC
:1014100000E00220F8BDC046020400000080FFFF8B
:10142000060400000F0F0000C080FFFF80C0FFFF18
:10143000BF8FFFFF8080FFFF01335B081018802201
:10144000D200821804E0108808800231013B023289
:10145000002BF8D17047C046F0B583B005000022DC
:1014600001AB1A8034E26B46DC880F231C4000D0AD
:10147000B1E06B4606331B88DB062ED40288CE4BC8
:10148000134003802B685022995A283AAA5CD20054
:101490008A18D318C94A944663441B889B059B0D40
:1014A0002B64AA6B94466344AB630021280003F0CD
:1014B00089FB2423EB5C002B00D109E2EB6B002BB2
:1014C00000D005E22422A95C803B0B43DBB24C2117
:1014D000286843520023AB54FAE103889BB201AA67
:1014E000138013881B051FD55023C25AB833EB5CF9
:1014F000DB00D3181B18B24A944663441B889B0533
:101500009B0D2A000932FF3293612900ED31FF3132
:101510009288FFF791FF2A681188AA4B0B4013802D
:10152000280003F035FBD3E101AB1B881BB2002B75
:1015300000DBCDE10288A34B1340038028685023D1
:10154000C25AB833EB5CDB00D3181B189C4A944694
:1015500063441B889B059B0D2A000932FF3293616F
:10156000002B09D0140092882169FFF765FF2369D9
:10157000A2699446634423610021280003F012FB12
:101580002A685023D35AD3188D4A99182B0009334F
:10159000FF33DA683E2A0AD953099BB2D20601D139
:1015A000013B9BB29B02884A13430B8007E0530820
:1015B0009BB2D20701D501339BB29B020B802A68F4
:1015C0001188824B0B40C02189014B4080490B435D
:1015D0009BB213807CE1A600801903889BB201AA0C
:1015E000138013881BB2002B00DBB5E00288754B1B
:1015F00013400380E200121B93001A00EB18133310
:10160000FF331B78002B1DD128685033C75A1100B7
:10161000AA180932FF321378DB00FB181B18684A3E
:10162000944663441F88BF05BF0D5FD06B181A0036
:101630000D32FF3212881933FF3319683B00FFF770
:10164000FBFE53E02868E200121B9300EB180933FD
:10165000FF331B789A008218128852041AD5502240
:10166000825ADB00D3181B18544A944663441F88DF
:10167000BF05BF0D28D0E200121B9300EB181A0023
:101680000F32FF3212881933FF3319683B00FFF71E
:10169000D3FE19E05022825ADB00D3181B18484AA7
:1016A000944663441F88BF05BF0D0DD0E200121B96
:1016B0009300EB181A001132FF3212881933FF33EE
:1016C00019683B00FFF7B8FEE200121B9300EB180D
:1016D0000933FF331A7892002B689C4662441188C4
:1016E0003C4B0B403C490B439BB213803800E3005A
:1016F0001B1B990069180A002132FF321368DB199D
:1017000013600B001933FF331A68944667441F6057
:101710001D31FF310B68002B08D0E200121B910035
:1017200069181531FF310A6890420AD2E200121B93
:101730009300EB180933FF331978280003F032FACD
:101740000AE0E100091B8A00AA180932FF32117869
:101750003A002800FFF71EFB01AB1B881B0600D4D4
:10176000B6E02B689C4666443288134B13403380A6
:10177000E200121B93001A00EB1832331B78002B87
:101780002CD128685033C65AAA18130028331B7866
:10179000DB00F3181B1809498C4663441B889B0522
:1017A0009B0D136468D0E200121B910069188A8DAA
:1017B000896BFFF7EDFC5FE00F8FFFFF0204000075
:1017C000060400008F0F00000080FFFF8FBFFFFFA7
:1017D0008080FFFF0F0F0000C080FFFF2868E2003D
:1017E000121B9300EB1828331B789A00821812887A
:1017F000520618D55022825ADB00D3181B183B4AD8
:10180000944663441B889B059B0DE100091B8A00DD
:101810001100AA181364002B1DD06918CA8D896B9A
:10182000FFF7B6FC17E05022825ADB00D3181B18D2
:101830002F4A944663441B889B059B0DE100091BBE
:101840008A001100AA181364002B04D069180A8EAC
:10185000896BFFF79DFCE200121B9300EB18283305
:101860001A7892002B689C4662441188214B0B40E9
:1018700021490B439BB213802A685023D65AE000BB
:10188000001B83001800EB18190028310978C900E3
:1018900071188A1815498C46624412889205920D77
:1018A0001A64996B8C4662449A63DB6B002B06D1F9
:1018B0002B1828331978280003F084F908E0E10098
:1018C0000C1BA1006918283109782800FFF774FC67
:1018D00028684423C35A9BB26A46D3801BB2002BAC
:1018E00000DAC0E5002003B0F0BDC04602040000ED
:1018F000060400000F0F000080C0FFFF70B5040059
:1019000044230268D35A1BB2002B01DAFFF7A4FD6F
:10191000236844229A5A52050BD54421585A594AF1
:1019200002405A52200003F063F900212000FEF724
:101930005DFF236844229A5A520404D54421585A20
:10194000514A02405A52236844229A5A920404D5BA
:101950004421585A4D4A02405A52236844229A5A06
:10196000D20426D54022995A042081439952484BEB
:1019700021688B52E369012B12D121683F3A8923F8
:101980009B00E2500022083BE2545432885A012363
:1019900003439BB28B52885A022303439BB28B5260
:1019A000200003F043F921684422885A394B034050
:1019B0008B52236844229A5A120518D54421585A4A
:1019C000354A02405A5220684022855A08232B4348
:1019D0009BB283522068855A04232B439BB28352C7
:1019E00023685B5ADB0402D4200003F00DF923685E
:1019F00044229A5A12062CD544215A5A80208243F6
:101A00005A5287239B00E35C002B1FD121684022A0
:101A1000885A042303439BB28B522168885A0823B7
:101A200003439BB28B523F3A87239B00E254C93B4E
:101A3000FF3B2268D25A9C3313409B1088229200AD
:101A4000A3500121200000F073F802E0200003F011
:101A5000DBF8236844229A5A920507D54421585A44
:101A60000E4A02405A52200003F0BAF8236844227A
:101A70009A5AD20504D54421585A094A02405A526A
:101A800070BDC046FFFBFFFFFFBFFFFFFFDFFFFF93
:101A900000BFFFFFFFEFFFFFFFF7FFFFFFFDFFFFAF
:101AA000FFFEFFFF10B50C0607D57F242140CC00B8
:101AB000611A8C002834001905E0CC00611A8C00F2
:101AC0000934FF340019002A02D18272838004E0B5
:101AD00001228272C3801B0C0381002010BDC0460E
:101AE000016801228A239B00C2505732885A012381
:101AF00003439BB28B52885A022303439BB28B52FF
:101B0000002070470168012289239B00C2500022F7
:101B1000083BC2545432885A012303439BB28B5270
:101B2000885A022303439BB28B5200207047C04661
:101B30007047C04610B51D4BDB68F0221A4222D117
:101B40001A4B9B6BDB0005D5194B1A68C0235B0150
:101B500013400EE0154A936B802149050B439363B4
:101B6000134B1968C0235B010B40946B1149214052
:101B70009163C0225201934207D1C0231B029842B5
:101B800005D0002004E0002002E0002000E0012059
:101B9000094A136801218B430343136013680B4008
:101BA000984201D0012000E0002010BD001002404A
:101BB00000700040FFFFFFEF0020024070B582B0D0
:101BC00004000368DB0761D5C84BDB680C221340B7
:101BD000082B08D0C54BDB6813400C2B0BD1C34B33
:101BE000DB68DB0307D5C14B1B689B034ED56368DD
:101BF000002B4BD17AE2636880225202934206D1D5
:101C0000BA4A1368802149020B4313601EE0A022E8
:101C1000D20293420BD1B54B1A688021C9020A4304
:101C20001A601A68802149020A431A600EE0AF4B1D
:101C30001968AF4A0A401A601968802252020A40A5
:101C40000192019A1968AB4A0A401A606368002B36
:101C50000ED0FEF713FC050005E0FEF70FFC401B5D
:101C6000642800D944E2A14B1B689B03F5D50DE025
:101C7000FEF704FC050005E0FEF700FC401B6428AD
:101C800000D937E2994B1B689B03F5D423689B0767
:101C900052D5964BDB680C221340042B08D0934B93
:101CA000DB6813400C2B14D1904BDB68DB0310D4A2
:101CB0008E4B1B685B0703D5E368012B00D01BE24A
:101CC0008A494A688C4B13402269120213434B60C5
:101CD00032E0E268002A1CD084490B680920834363
:101CE00013430B60FEF7CAFB050005E0FEF7C6FBD9
:101CF000401B022800D901E27C4B1B685B07F5D52D
:101D00007A494A687C4B13402269120213434B60A4
:101D100012E0764A136801218B431360FEF7AEFB95
:101D2000050005E0FEF7AAFB401B022800D9E7E109
:101D30006E4B1B685B07F5D42368DB0600D488E094
:101D40006A4BDB680C221A424AD1684B1B689B0520
:101D500003D5E369002B00D1D4E1606A634B5A6874
:101D6000E0231B021340984213D9FFF7E3FE00283B
:101D700000D0C9E15D494A68604B1340626A134371
:101D80004B604B681B021B0A226A120613434B600E
:101D900012E056494A68594B1340184348604B6853
:101DA0001B021B0A226A120613434B60606AFFF78C
:101DB000C1FE002800D0A9E1636A5A0B01328023DA
:101DC0001B029340494AD26812090F210A404C492C
:101DD0008A5CD3404B4A1360002002F0B1FD38E02A
:101DE000E369002B22D0414A1368802149000B434C
:101DF0001360FEF743FB050005E0FEF73FFB401BC9
:101E0000022800D984E1394B1B689B05F5D5374979
:101E10004A683A4B1340626A13434B604B681B029B
:101E20001B0A226A120613434B6012E02F4A116804
:101E3000354B0B401360FEF721FB050005E0FEF774
:101E40001DFB401B022800D964E1284B1B689B0541
:101E5000F5D423681B0729D56369002B13D0234AC7
:101E6000116D01230B431365FEF708FB050005E028
:101E7000FEF704FB401B022800D94DE11B4B1B6DF4
:101E80009B07F5D512E0194A136D01218B431365A9
:101E9000FEF7F4FA050005E0FEF7F0FA401B022811
:101EA00000D93BE1114B1B6D9B07F5D423685B0701
:101EB00000D491E00D4B9B6BDB0007D40B4A936B76
:101EC000802149050B439363012500E000250F4B5A
:101ED0001B68DB0526D40D4A1368802149000B439B
:101EE0001360FEF7CBFA060018E0C046001002406F
:101EF000FFFFFEFFFFFFFBFFFFE0FFFFFF1FFFFFF6
:101F0000B050000814010020FFFEFFFF00700040E9
:101F1000FEF7B4FA801B642800D901E18B4B1B68E3
:101F2000DB05F5D5A36880225200934206D1884A8A
:101F3000136D802149000B43136524E0002B09D168
:101F4000834B196D834A0A401A65196D824A0A400B
:101F50001A6518E0A022D20093420BD17C4B1A6D77
:101F60008021C9000A431A651A6D802149000A437D
:101F70001A6508E0764B196D764A0A401A65196DA4
:101F8000754A0A401A65A368002B0FD0FEF776FA4F
:101F9000060006E0FEF772FA801B704B984200D9EB
:101FA000C0E06B4B1B6D9B05F4D50EE0FEF766FAA7
:101FB000060006E0FEF762FA801B684B984200D9E3
:101FC000B2E0634B1B6D9B05F4D4012D04D1604A34
:101FD000916B634B0B40936323689B0636D5A369D3
:101FE000002B1CD05A4B9968012211439960596B00
:101FF0000A435A635B4A136A802189010B431362C7
:10200000FEF73CFA050005E0FEF738FA401B02280F
:1020100000D98BE04E4B9B689B07F5D516E04C4AE8
:10202000936801218B4393604E4A116A4E4B0B40DB
:102030001362FEF723FA050004E0FEF71FFA401BC7
:10204000022875D8424B9B689B07F6D4A36A002BE5
:1020500070D03F4AD2680C210A400C2A6CD0022B67
:1020600030D13B4A1168414B0B401360FEF706FA32
:10207000050004E0FEF702FA401B02285ED8344B4C
:102080001B689B01F6D43249C868394B1840E36A93
:10209000226B1343626B13430343CB600B688022B4
:1020A000520413430B60FEF7E9F9040004E0FEF765
:1020B000E5F9001B022843D8254B1B689B01F6D588
:1020C000002040E0224A1168284B0B401360FEF7C5
:1020D000D5F9040004E0FEF7D1F9001B022831D83D
:1020E0001B4B1B689B01F6D400202CE001202AE04A
:1020F000032028E0032026E0012024E0032022E042
:10210000032020E001201EE001201CE001201AE055
:10211000032018E0032016E0032014E0032012E05F
:10212000032010E003200EE003200CE003200AE06F
:10213000032008E0002006E0012004E0032002E084
:10214000032000E0032002B070BDC04600700040D4
:1021500000100240FFFEFFFFFFFBFFFF881300009F
:10216000FFFFFFEF00000140FFDFFFFFFFFFFFFE6B
:10217000FFFF02FF10B51F4BD9680C230B40082B43
:1021800033D00C2B07D0042B25D11A4B1B68DB0650
:102190002DD519482CE08B0C0F221340174AD25C26
:1021A000890D032319400131124BDB68DB0304D591
:1021B00013485043FDF7B4FF1AE00E4B1B68DB06D3
:1021C00004D50D485043FDF7ABFF11E00D485043D7
:1021D000FDF7A6FF0CE0074B5B685B0B0722134083
:1021E000013380200002984002E0054800E00548E5
:1021F00010BDC0460010024000093D00A450000878
:1022000000127A000024F40070B504000D00644B45
:102210001B68012213408B420AD2614A13680121D4
:102220008B432B43136013680B409D4200D0A2E008
:1022300023689B0706D55B4AD368F0218B43A168CE
:102240000B43D3602368DB075FD56368022B04D19F
:10225000544A1268920313D48FE0032B04D1514ADD
:10226000126892010CD48AE0012B04D14D4A126805
:10227000520705D485E04B4A1268920500D482E0EB
:102280004849CA68032082431343CB60FEF7F6F83F
:1022900006006368022B0DD105E0FEF7EFF8801B06
:1022A000414B984271D83F4BDB680C221340082BFE
:1022B000F3D12AE0032B0DD105E0FEF7DFF8801BF8
:1022C000394B984263D8374BDB680C2213400C2BF8
:1022D000F3D11AE0012B13D105E0FEF7CFF8801BF4
:1022E000314B984255D82F4BDB680C221340042BFE
:1022F000F3D10AE0FEF7C2F8801B2B4B98424AD874
:10230000284BDB680C221A42F4D1254B1B680122B2
:1023100013409D4209D2224A136801218B432B436B
:10232000136013680B409D4237D123685B0706D5C5
:102330001C4AD1681D4B0B40E1680B43D3602368F6
:102340001B0707D51749CA68194B13402269D200E9
:102350001343CB60FFF70EFF124BDB681B090F2204
:102360001340144AD35CD840134B1860002002F08D
:10237000E7FA002012E0012010E001200EE0012029
:102380000CE001200AE0012008E0032006E0032021
:1023900004E0032002E0032000E0012070BDC046FD
:1023A000002002400010024088130000FFF8FFFFE9
:1023B000FFC7FFFFB050000814010020014B186850
:1023C0007047C0461401002010B5FFF7F7FF044B1B
:1023D000DB681B0A07221340024AD35CD84010BDB9
:1023E00000100240C050000810B5FFF7E7FF044B93
:1023F000DB68DB0A07221340024AD35CD84010BDD9
:1024000000100240C050000810B50F2303600C4AB2
:10241000D368032423404360D368ED3423408360B2
:10242000D468E023DB001C40C460D268D2081340AB
:102430000361044B1B68012213400B6010BDC046B2
:10244000001002400020024070B5040082231B01EE
:1024500002681A4200D191E06B4B9B6BDB0007D402
:10246000694A936B802149050B439363012500E082
:102470000025664B1B68DB0513D4644A1368802172
:1024800049000B431360FDF7F9FF060005E0FDF777
:10249000F5FF801B642800D9AEE05C4B1B68DB05B0
:1024A000F5D5594B1A68C0239B031A4061680B404D
:1024B0009A4205D1C0239B03A06803409A420AD0E8
:1024C000C0239B020A001A409A4204D14E4B1B685B
:1024D0009B0300D592E04C4B1A6DC0239B02134026
:1024E0002ED0C022920211408B4202D02268920666
:1024F00008D4C0229202A1680A40934220D02368E7
:102500001B051DD5404B186D414A0240196D8026B0
:102510003603314319651E6D3E49314019651A6510
:10252000C3050DD5FDF7AAFF060005E0FDF7A6FFE0
:10253000801B394B984263D8334B1B6D9B05F5D5F7
:102540006268C0239B0211001940994208D12E48AD
:102550000168324B1940C0239B031A400A430260B2
:10256000294A116DC0239B02606803400B43136529
:10257000012D03D1916B2A4B0B4093632368DB073A
:1025800006D5214AD36C03218B43E1680B43D36406
:1025900023689B0706D51C4AD36C0C218B43216909
:1025A0000B43D36423685B0706D5174AD16C1D4BD8
:1025B0000B4061690B43D36423681B0706D5124A9D
:1025C000D16C194B0B40A1690B43D36423685B06A4
:1025D00006D50D4AD16C154B0B40216A0B43D364D1
:1025E00023681B060ED50849CA6C114B1340E269DB
:1025F0001343CB64002006E0032004E0012002E046
:10260000032000E0002070BD001002400070004078
:10261000FFFFFCFFFFFFF7FF88130000FFFFCFFF66
:10262000FFFFFFEFFFF3FFFFFFCFFFFFFFFFFFFB0A
:10263000FFFFF3FF10B5082800D1D7E009D8022822
:1026400000D196E0042800D1AEE0012800D0ECE0F3
:1026500074E020280BD003D8102800D1DEE0E4E09D
:1026600040283BD080231B01984200D0DDE0854B01
:10267000196D1A6DC0239B021340802252029342AF
:1026800002D18A0500D5D2E080229202934202D183
:102690008A0700D5CEE0C0229202934200D0CBE060
:1026A000784B1B689B0300D4C8E0764B1A68C023A4
:1026B0009B03134080229203934200D1C0E0C022CA
:1026C0009203934204D080225203934204D101E04A
:1026D0006D48D5E06D48D3E06D48D1E0694BDA6CC8
:1026E0008023DB0413401FD1664A126892011BD578
:1026F000644AD368D1689B0C0F2003406548C35CD3
:10270000890D032001400131D268D20305D45D4A0E
:102710001268D20603D55E4802E05F4800E05F48D9
:102720005843FDF7FDFCABE0002B00D18AE0554B90
:102730009B689B0700D587E00020A1E0514BDB6C34
:102740000322134002D1FFF74FFE99E0022B03D181
:102750004C4A1268520779D4012B02D1FFF70AFDC7
:102760008EE0032B74D1474B1B6D9B0572D4002068
:1027700086E0444BDB6C0C22134002D1FFF724FEB1
:102780007EE0082B03D13F4A1268520765D4042B20
:1027900002D1FFF7EFFC73E00C2B60D1394B1B6DBE
:1027A0009B055ED400206BE0364BDA6CC0231B0126
:1027B000134002D1FFF708FE62E08022120193422B
:1027C00003D1304A126852074ED48022D20093427D
:1027D00002D1FFF7CFFC53E0C0221201934245D152
:1027E000284B1B6D9B0543D4002049E0254BDA6C38
:1027F000C0239B01134002D1FFF7E6FD40E0802299
:102800009201934203D11F4A1268520733D48022A7
:102810005201934231D1FFF7ADFC31E0194B9B6B74
:102820005B022CD5FFF7D0FD2AE0002028E08020B5
:10283000000225E01A4823E0002021E000201FE0EC
:1028400018481DE000201BE0174819E0134817E066
:10285000002015E08020000212E0104810E0002067
:102860000EE0802000020BE00C4809E0002007E0A9
:102870008020000204E0094802E0002000E000207F
:1028800010BDC0460010024020A1070080841E0039
:1028900000093D00A450000800127A000024F40052
:1028A0008890000040420F00006CDC0270B504000C
:1028B0000368DA68520613D401225242DA60FDF747
:1028C000DDFD050006E0FDF7D9FD401BFA239B0066
:1028D000984207D82368DB685B06F4D5002002E045
:1028E000002000E0032070BD70B5041E4DD02123F0
:1028F000C35C002B04D100222033C25401F0F0FF4E
:1029000002222123E2542368C8325A622368773AAC
:102910005A622000FFF7CAFF002807D02368FF2271
:102920005A62FB3A2123E25401202FE02268916889
:10293000174B0B40936022689168636825692B43AD
:10294000A5692B430B4393602368E2681A612268F0
:102950001169A3681B040B4313612268D3688021AB
:102960008B43D3602268D36C7D398B43D364226858
:10297000D16CE36965692B430B43D3642368FF2261
:102980005A62FE3A2123E25400E0012070BDC046A5
:10299000BFFF8FFF03688022D205904207D0194AFB
:1029A000904206D0184A904205D1012204E001224B
:1029B00002E0012200E00022002A03D070229343AB
:1029C0004A6813438022D205904207D00D4A9042B4
:1029D00006D00D4A904205D1012204E0012202E016
:1029E000012200E00022002A03D0084A1340CA68EE
:1029F000134303608B68C3620B68836201234361E6
:102A00007047C0460008014000140140FFFCFFFF72
:102A10007047C04670B5041E13D03523C35C002B2D
:102A200004D100223433C254FFF7F2FF35250223CC
:102A30006355211D2068FFF7ADFF0123635500207A
:102A400000E0012070BDC0460168CA6801231A4336
:102A5000CA60026811680B43136000207047C046CB
:102A60007047C0467047C0467047C0467047C04672
:102A700010B5040003681A69920715D5DA68920741
:102A800012D5032252421A610123037503689B6920
:102A90009B0702D0FFF7E6FF04E0FFF7E1FF20000D
:102AA000FFF7E2FF0023237523681A69520719D53F
:102AB000DA68520716D5052252421A61022323759D
:102AC00023689A69C0239B001A4203D02000FFF7B5
:102AD000C9FF05E02000FFF7C3FF2000FFF7C4FF98
:102AE0000023237523681A69120717D5DA681207BD
:102AF00014D5092252421A61042323752368DB6925
:102B00009B0703D02000FFF7ADFF05E02000FFF793
:102B1000A7FF2000FFF7A8FF0023237523681A6989
:102B2000D20619D5DA68D20616D5112252421A6198
:102B3000082323752368DA69C0239B001A4203D057
:102B40002000FFF78FFF05E02000FFF789FF20003E
:102B5000FFF78AFF0023237523681A69D20708D577
:102B6000DA68D20705D5022252421A61200001F02C
:102B700013FE23681A69520608D5DA68520605D58D
:102B8000412252421A612000FFF770FF10BDC0467B
:102B9000F8B5050083680269134342691343C169AC
:102BA000194300680368BB4A13400B4303602A685B
:102BB0005168B94B0B40E9680B435360A869296819
:102BC000B64B994201D02B6A18438B68B44A134024
:102BD00003438B602B68B34A934214D1B24BDB6C36
:102BE00003221340012B08D0002B04D0022B45D028
:102BF000032B04D005E0012447E0042445E0082429
:102C000043E0102441E0A94A934216D1A64BDB6C65
:102C10000C221340042B0AD002D8002B05D00AE066
:102C2000082B2DD00C2B04D005E000242DE004242B
:102C30002BE0082429E0102427E0984A934221D170
:102C4000994BDA6CC0231B0113408022D2009342BF
:102C50000ED002D8002B09D00EE080221201934240
:102C600012D0C0221201934204D005E000240CE0EF
:102C700004240AE0082408E0102406E0022404E00A
:102C8000022402E0102400E002240220FFF7D2FC1C
:102C90002E68824B9E4240D1022C0FD002D8002CCD
:102CA00008D016E0042C10D0082C12D1002480206B
:102CB000000213E0FFF788FB00240FE07A4B1B684B
:102CC000DB0609D500247A4808E0FFF753FA002410
:102CD00004E00124002001E000247648002800D10F
:102CE000D5E06A6853009B18984200D2C8E01303ED
:102CF000984200D9C6E0070E06025008002180194C
:102D000079410023FDF798FA6B4BC2186B4B9A423E
:102D100000D9B9E02B68D860B9E080231B02EA69CA
:102D20009A425AD1082C4BD8A400654B1B599F4698
:102D300040006B685B08C0186968FDF7F1F980B264
:102D400000243FE0FFF750FB40006B685B08C018B1
:102D50006968FDF7E5F980B2002433E0524B1B6847
:102D6000DB060AD56B685808564B9C466044696878
:102D7000FDF7D6F980B2002424E06B685808524B66
:102D80009C4660446968FDF7CBF980B2002419E0E5
:102D9000FFF7F0F940006B685B08C0186968FDF741
:102DA000BFF980B200240DE06B68580880235B02F5
:102DB0009C4660446968FDF7B3F980B2002401E0E5
:102DC000012400200F2302009A4313004010072221
:102DD000104018432B68D86059E0082C56D8A4003E
:102DE0003A4B1B599F46FFF7EFFA69684B08C0182A
:102DF000FDF796F90004000CF060002447E0FFF7AF
:102E0000F3FA69684B08C018FDF78AF90004000C52
:102E1000F06000243BE0244B1B68DB060BD569689F
:102E20004808234B9C466044FDF77AF90004000CE7
:102E3000F06000242BE0696848081E4B9C46604403
:102E4000FDF76EF90004000CF06000241FE0FFF7AE
:102E500091F969684B08C018FDF762F90004000C8D
:102E6000F060002413E06968480880231B029C4638
:102E70006044FDF755F90004000CF060002406E002
:102E8000012404E0012402E0012400E001242000E8
:102E9000F8BDC046F369FFEFFFCFFFFF00480040D9
:102EA000FFF4FFFF003801400010024000440040E2
:102EB00000093D000024F40000FDFFFFFFFC0F00AF
:102EC000E84F000800127A000048E8010C500008A2
:102ED000436ADB0706D5026851682C4B0B40816AB8
:102EE0000B435360436A9B0706D502685168284B21
:102EF0000B40C16A0B435360436A5B0706D5026807
:102F00005168244B0B40016B0B435360436A1B0712
:102F100006D502685168204B0B40416B0B43536050
:102F2000436ADB0606D5026891681C4B0B40816B37
:102F30000B439360436A9B0606D502689168184B61
:102F40000B40C16B0B439360436A5B0612D502686A
:102F50005168144B0B40016C0B43536080235B039F
:102F6000026C9A4206D1026851680F4B0B40416CCB
:102F70000B435360436A1B0606D501684A680B4B36
:102F80001340826C13434B607047C046FFFFFDFF48
:102F9000FFFFFEFFFFFFFBFFFF7FFFFFFFEFFFFFD6
:102FA000FFDFFFFFFFFFEFFFFFFF9FFFFFFFF7FFC9
:102FB000F0B5474680B405000F0016009846069C01
:102FC0001DE0631C1BD0002C05D0FDF757FA4346CB
:102FD000C01A844213D22A6811680F4B0B40136049
:102FE0002A68936801218B43936020236922AB54A4
:102FF0000132AB5400224833EA54032009E02B6825
:10300000DB693A009A4313005A425341B342D8D085
:10301000002004BC9046F0BD5FFEFFFF30B583B0DA
:1030200004000023C366FDF729FA050023681B6826
:103030001B070AD5144B009303000022802189034B
:103040002000FFF7B5FF002818D123681B685B0735
:103050000AD50D4B00932B0000228021C9032000CC
:10306000FFF7A6FF00280BD120236922A3540132C9
:10307000A35400224833E254002002E0032000E081
:10308000032003B030BDC046FFFFFF01F8B50400C8
:103090000F0016001D00002839D06923C35C002BE7
:1030A00004D100226833C25401F0E8FC24226923D1
:1030B000E2542268136801218B431360636A002B7A
:1030C00002D02000FFF704FF2000FFF761FD012878
:1030D0001ED0226893688021C9010B439360226847
:1030E00091680C4B0B401F43976076052D043543C8
:1030F00022681668084B1E40354315602268116827
:1031000001230B4313602000FFF788FF00E001203C
:10311000F8BDC046FF7FFFFFFFFF00FC86239B003A
:10312000C358002B05D00021852292009950002021
:1031300000E002207047C04610B586239B00C458AB
:103140000433C358002B0DD080229200A05CFF28CE
:1031500008D09B68044AA25C21009847FF22802384
:103160009B00E254002010BD0102000043230380B5
:10317000004870470000002043230380014844308A
:103180007047C046000000204323038001480830F8
:103190007047C046800000200A23038001484C305D
:1031A0007047C0468000002070B504008626B60037
:1031B000855901F043FE83239B00E850A359002B5F
:1031C0000BD087239B00E358DB6883229200A91869
:1031D000083AA8589847002000E0022070BDC04679
:1031E00070B505000C0086239B00C6580978B93BD2
:1031F000FF3B0B4029D0202B2ED1E288002A1BD088
:1032000049B200290CDAFD33FF33C3589B6860785C
:1032100031009847E2883100280000F0F1FC1BE003
:10322000627880239B00F254E2880C4BF254E288CF
:10323000310000F0FBFC0FE087239B00C3589B6824
:10324000607800222100984706E063780A2B03D1BA
:103250000122034900F0D4FC002070BD01020000EF
:103260007801002070B50400812101F061FD012189
:10327000200001F05DFD8221200001F059FD862330
:103280009B00E358002B0BD087239B00E3585B681F
:1032900098478625AD00605901F0DCFD002363519D
:1032A000002070BD70B50400037C002B0DD180257B
:1032B000AD002B000222812101F026FD2B0002220D
:1032C0000121200001F020FD0AE04023022281219B
:1032D00001F01AFD402302220121200001F014FD1B
:1032E000082303228221200001F00EFD87208000A8
:1032F00001F0ACFD050086239B00E050002821D0A2
:103300000433E3581B689847002385229200AB5092
:103310000432AB50237C002B09D181239B00EA5857
:10332000043B0121200001F077FD00200BE0812308
:103330009B00EA58C53BFF3B0121200001F06CFDDA
:10334000002000E0012070BD002904D087239B00ED
:10335000C150002000E002207047C04686239B0039
:10336000C358822080001950842189005A500020BF
:103370007047C04686239B00C258143BD1500020A2
:103380007047C04610B586239B00C358002B15D04C
:10339000027C002A09D1812292009A5880239B0046
:1033A000012101F039FD002009E0812292009A58A4
:1033B0004023012101F030FD002000E0022010BD7B
:1033C00010B5002816D085239B00C358002B03D0CE
:1033D000002485239B00C450002902D084239B0035
:1033E000C1500121FE235B00C154027001F032FC88
:1033F000002000E0022010BD002904D085239B009E
:10340000C150002000E002207047C04610B501F016
:1034100069FC002010BDC04610B585239B00C35831
:10342000002B05D01B689847002803D0022002E03B
:10343000022000E0002010BD10B585239B00C3587A
:103440005B689847002010BD70B5040082239B0084
:10345000C518280000F030F90122FA235B00E25081
:10346000124BE25A163BE2501033E15CEA3BFF3B61
:103470000B40012B09D0002B02D0022B0AD00EE00A
:103480002900200000F0BCFA0EE02900200000F026
:10349000DBFA09E02900200000F0F4FA04E07F23C1
:1034A0009943200001F056FC002070BD0E02000080
:1034B00010B504001300002927D1FA2252008258C7
:1034C000032A2ED1421DFF329168D26891420CD955
:1034D000891A0530FF3081608A4200D90A0092B211
:1034E0001900200000F0B2FB1BE085239B00C358AD
:1034F0001B69002B05D0FE225200825C032A00D1FA
:103500009847200000F0AAFB0BE085239B00C358DE
:103510009B69002B05D0FE225200825C032A00D159
:103520009847002010BDC04670B504001300002964
:103530004BD1FA2252008258022A3CD1C269056A54
:10354000AA420CD9521BC26192B2190000F066FB6C
:10355000002300220021200001F05EFC2BE08669A0
:1035600029003000FCF762FE002914D1B54212D8C0
:10357000FC235B00E3589E420DD20022200000F0A5
:103580004DFB0022FC235B00E250002300212000C1
:1035900001F042FC0FE085239B00E358DB68002B21
:1035A00006D0FE225200A25C032A01D120009847D7
:1035B000200000F05FFB80239B00E35C012B10D117
:1035C000002280239B00E2540BE085239B00C3581C
:1035D0005B69002B05D0FE225200825C032A00D1D9
:1035E0009847002070BDC04670B5040040230022FB
:1035F000002101F089FB402588235B00E550D03B8A
:1036000000228021200001F07FFB25620122FE23A1
:103610005B00E2541C33E358002B06D085239B004B
:10362000E3585B68217920009847002070BDC046B0
:10363000017400207047C046FE235B00C15CFE227F
:10364000FF328154FA3AFF3AC25400207047C04614
:10365000FE23FF33C25C013BC25400207047C046CA
:1036600010B5FE235B00C35C032B06D185239B00B2
:10367000C358DB69002B00D09847002010BDC0461E
:103680000300002002E00130C0B201331A78002AA2
:10369000F9D1704710B504004B88012B0AD10122E3
:1036A00081239B00C2501033C3589B689847200069
:1036B00000F0D4FA10BDC0460B7803704B7843700D
:1036C0008A78CB781B029B1843800A794B791B02BE
:1036D0009B1883808A79CB791B029B18C380704723
:1036E00010B50400802101F035FB0021200001F01D
:1036F00031FB10BD30B583B004000D004A88130AB9
:10370000072B00D984E09B004E49CB589F46842369
:103710009B00C3581B68007C6A46911D98477CE05B
:10372000037C002B09D185239B00C3589B6A6A4602
:10373000901D9847022343706FE085239B00C35878
:10374000DB6A6A46901D98470223437065E0D2B257
:10375000052A39D892003C4B9B589F4684239B00F6
:10376000C3585B68007C6A46911D984755E08423E6
:103770009B00C3589B68007C6A46911D98474CE0AB
:1037800084239B00C358DB68007C6A46911D9847E0
:1037900043E084239B00C3581B69007C6A46911D4B
:1037A00098473AE084239B00C3585B69007C6A46D3
:1037B000911D984731E084239B00C3589B69007C8E
:1037C0006A46911D984728E02900FFF789FF37E0F6
:1037D000037C002B07D185239B00C3585B6B6A4693
:1037E000901D984719E02900FFF77AFF28E0037C35
:1037F000002B09D185239B00C3581B6B6A46901D83
:1038000098470723437008E02900FFF769FF17E096
:1038100029002000FFF764FF12E06B4606331B8887
:10382000002B0DD0EA88002A0AD0191C934200D937
:10383000111C8AB26B46D9800100200000F0E0F92B
:1038400003B030BD305000085050000870B504007F
:103850008B88002B22D1CB88002B1FD18B787F2522
:103860001D40FE235B00C35C032B02D1FFF738FF32
:1038700017E0FF235B00C554290001F0A9FA2000DE
:1038800000F0ECF9002D04D00222FE235B00E2548C
:1038900007E00122FE235B00E25402E02000FFF774
:1038A0001FFF70BD70B504000D008978284B19709A
:1038B000012903D92900FFF713FF48E0FE235B002D
:1038C000C35C022B02D0032B17D03DE0002911D09E
:1038D00041600322FE235B00C254FFF79DFD0228D6
:1038E00004D129002000FFF7FBFE30E0200000F0AB
:1038F000B5F92CE000F0B2F929E000290AD1022242
:10390000FE235B00C2544160FFF796FD200000F0EB
:10391000A5F91CE04368994213D0D9B2FFF78CFD9A
:103920000B4B197861602000FFF776FD022804D167
:1039300029002000FFF7D4FE09E0200000F08EF9F6
:1039400005E000F08BF902E02900FFF7C9FE70BD29
:103950007901002010B5CB88012B02D0FFF7C0FE03
:1039600016E0FE235B00C35C022B02D0032B08D0C1
:103970000CE00023836001000831012200F040F9CF
:1039800006E0011D012200F03BF901E0FFF7A8FE6F
:1039900010BDC04610B5FE235B00C35C023BDBB22A
:1039A000012B0ED80123C36081239B00C358002B39
:1039B00001D00323C36001000C31022200F020F982
:1039C00001E0FFF78DFE10BD10B50400FE235B0083
:1039D000C35C023BDBB2012B0ED84B88012B0DD10F
:1039E000002281239B00C2501033C3589B68984724
:1039F000200000F033F901E0FFF772FE10BDC04671
:103A000010B54B78092B18D89B000E4AD3589F4607
:103A1000FFF770FE13E0FFF719FF10E0FFF742FF1A
:103A20000DE0FFF797FF0AE0FFF7B4FF07E0FFF7AD
:103A300031FE04E0FFF7C8FF01E0FFF751FE002070
:103A400010BDC0466850000870B504000D00FE238C
:103A50005B00C35C032B11D10B79012B0BD88523A1
:103A60009B00C3589B689847EB88002B08D1200027
:103A700000F0F4F804E0FFF733FE01E0FFF730FE5A
:103A8000002070BD70B505000C008A88D1B2237883
:103A900060200340202B07D1F533FF33EB589B68A0
:103AA0002100280098478AE06378012B2ED0002B54
:103AB00054D0032B00D082E0FA33FF33EB5C022BAF
:103AC00002D0032B08D01CE0002978D0802976D0C2
:103AD000280001F03FF972E06388002B06D100292D
:103AE00004D0802902D0280001F034F985239B00FE
:103AF000EB589B68210028009847280000F0AEF89A
:103B00005DE021002800FFF7EBFD58E0FE235B009D
:103B1000EB5C022B02D0032B08D01AE000294ED018
:103B200080294CD0280001F015F948E06388002B6B
:103B300045D14B0609D0280001F01EF985239B00D2
:103B4000EB589B68210028009847280000F086F871
:103B500035E021002800FFF7C3FD30E0FE235B00C5
:103B6000EB5C022B02D0032B06D024E04B0626D0C0
:103B7000280001F0EFF822E0130606D57F240C4060
:103B8000013424012C19043405E07F240C40103446
:103B900024012C190434280001F000F9002802D077
:103BA0000123236001E0002323600222210028007A
:103BB00000F026F803E021002800FFF791FD002027
:103BC00070BDC04670B504000D001600002816D068
:103BD000FFF756FD431C5B009BB233802B70032321
:103BE0006B70013B08E05A1CD2B20134E954023335
:103BF000DBB2AA180021117021780029F3D170BD21
:103C000010B513000224FA22520084508361C3616C
:103C10000A00002101F0EEF8002010BD10B51300DD
:103C20000A00002101F0E6F8002010BD10B51300D5
:103C30000324FA2252008450EC3A83500432835019
:103C40000A00002101F0E8F8002010BD10B51300B3
:103C50000A00002101F0E0F8002010BD10B5042298
:103C6000FA235B00C25000230022002101F0C2F8B9
:103C7000002010BD10B50522FA235B00C2500023BE
:103C80000022002101F0C8F8002010BD842801D0D6
:103C9000033000E00020704710B500F0B3F90020B9
:103CA00010BDC046F0B585B00D00466807680469D0
:103CB0000823C05EFFF7EAFFA2B203AB01930090B6
:103CC0002B003900300000F06DF9012801D1039874
:103CD00000E0002005B0F0BD10B5002800D1013093
:103CE00000F0AEFA002010BD10B500F039FB01283D
:103CF00001D000F0D7FB10BD030008334360012260
:103D000052428260C3600361002303607047C04673
:103D1000002303617047C04643684B609A688A601D
:103D20009A685160996008610368013303607047C5
:103D300030B50C68631C01D1026907E0020008324B
:103D400000E01A0053681D68AC42FAD253684B6019
:103D500099608A605160086103680133036030BD77
:103D600003694268816891608268416851605A685D
:103D7000904201D182685A60002202611A68501E86
:103D8000186070470A4B9B6A1B68002B01D10133F6
:103D900000E00023002B04D001225242044BDA62DF
:103DA00005E0034B9A6AD268D2685268DA627047BB
:103DB0007C01002010B50400006B00F065FC2000C1
:103DC00000F062FC10BDC046F0B583B000900193D6
:103DD000089C0A9E1D4B9C4662449200336B9C4695
:103DE000624407239A431700002308E0C8180578A7
:103DF000F218343215700278002A02D001330F2BEA
:103E0000F4D900224323F254062C00D90624F4628C
:103E100074640025B564301DFFF77AFF3000183058
:103E2000FFF776FF366107231C1BB4617662F564E9
:103E30004933F554019A0099380000F0CBFA30600C
:103E4000099B002B00D01E6003B0F0BDFFFFFF3FB9
:103E5000F8B5002408E0A200121993001048303091
:103E6000C018FFF749FF0134062CF4D90D4C270088
:103E70003C373800FFF740FF260050363000FFF790
:103E80003BFF074D28001430FFF736FF2000643059
:103E9000FFF732FF2800FFF72FFFAF62A667F8BDDC
:103EA0007C010020FC01002010B5040000F0B0FAF5
:103EB0001E4AD36F0133D3671D4B1B68002B07D1FC
:103EC0001B4B1C60D36F012B0ED1FFF7C1FF0BE022
:103ED000174B5B68002B07D1154B1B68DB6AE26A46
:103EE000934201D8124B1C60114A936801339360CE
:103EF000E36AD268934201D90D4AD360211D9A002A
:103F0000D3189A000B4830308018FFF705FF00F0F7
:103F10008BFA074B5B68002B07D0054B1B68DA6AEE
:103F2000E36A9A4201D200F067FA10BDFC0100205A
:103F30007C0200207C01002070B504000D00164BAF
:103F40001E6918680430FFF70BFF631C08D1002DB1
:103F500006D0114B196804311048FFF7DDFE19E057
:103F600034190D4B1B685C60A64207D90C4B986F47
:103F7000094B19680431FFF7DBFE0BE0074DA86A17
:103F8000054B19680431FFF7D3FEEB6A9C4201D25E
:103F9000024BDC6270BDC0467C0200207C01002028
:103FA000FC010020F0B587B00490059114001F00BB
:103FB000900000F007FB061E0AD0542000F002FB20
:103FC000051E01D0066304E0300000F05DFB00E058
:103FD0000025002D11D00023039302950D9B019322
:103FE0000C9B00933B00220005990498FFF7ECFE20
:103FF0002800FFF759FF012001E00120404207B0EF
:10400000F0BDC04600B583B00F4B1C3301930023B5
:10401000009380220D490E48FFF7C4FF01280CD100
:1040200072B6012252420B4BDA62074B02325A60DF
:1040300000221A6100F05CFA03E0431C01D172B661
:10404000FEE703B000BDC0467C020020C850000857
:10405000C54200087C010020024A93690133936144
:104060007047C0467C020020F8B53D4B9B69002B91
:1040700068D13B4B1E6901361E61002E12D1394BAF
:104080009B6A1B68002B01D072B6FEE7354A916A25
:10409000354B986F90629967314A136A0133136206
:1040A000FFF770FE2F4BDB6A9E4203D200243DE0F7
:1040B000012400E000242B4B9B6A1B68002B01D1DC
:1040C000013300E00023002B04D001225242254B93
:1040D000DA622BE0234B9B6ADB68DF687B689E42D9
:1040E00002D2204AD36221E03D1D2800FFF738FEAE
:1040F000BB6A002B03D038001830FFF731FEFB6A93
:10410000174AD268934201D9154AD3609A00D3184E
:104110009A001448303080182900FFF7FDFDFA6A34
:104120000F4B1B68DB6A9A42C2D2C4E70C4B1B6878
:10413000DB6A9A00D3189A000A4B9A18136B012B6A
:1041400006D806E0064A536A01335362002400E0B1
:104150000124034B9B6A002B00D001242000F8BDF2
:104160007C0200207C010020FC01002070B5314B56
:104170009B69002B01D172B6FEE700F049F92D4B87
:104180009A69013A9A619B69002B4CD12A4BDB6FEB
:10419000002B26D1002449E0284B1B6ADC68200054
:1041A0001830FFF7DDFD251D2800FFF7D9FDE36A74
:1041B000204AD268934201D91E4AD3609A00D3188C
:1041C0009A001E48303080182900FFF7A5FD194BD2
:1041D0001B68DB6AE26A9A4204D30122154B9A6299
:1041E00000E00024154B5B69002BD5D1002C01D0D9
:1041F000FFF7C8FD0F4B5C6A002C0CD0FFF734FFB3
:10420000002802D001220B4B9A62013C002CF5D110
:104210000022084B5A62074B9B6A002B05D000F026
:10422000EBF8012402E0002400E0002400F0FCF898
:10423000200070BD7C020020FC0100207C010020D9
:1042400010B5041E0ED00A4B9B69002B01D072B62C
:10425000FEE7FFF701FF00212000FFF76DFEFFF7EB
:1042600085FF00E00020002801D100F0C5F810BD56
:104270007C02002070B51BE0FFF7EEFE0F4B5C6E7A
:10428000FFF774FF002C13D000F0C2F80B4C236F23
:10429000DD68281DFFF764FDE36F013BE367084A13
:1042A0005369013B536100F0BFF82800FFF782FD1E
:1042B000034B5B69002BDFD170BDC046FC010020C1
:1042C0007C02002010B5FFF7D5FF034B1B6B012BC1
:1042D000F9D900F091F8F6E77C01002010B51E4BEB
:1042E0009B69002B03D001221B4B9A6232E01A4BD0
:1042F00000229A62DB6804E0002B01D172B6FEE76F
:10430000013B9900C9188A0014498A18126B002AC7
:10431000F2D00A009900CC18A0001018446B646811
:10432000446330321000C9188A000832821894425F
:1043300006D160689900C9188A0008498A18506334
:104340009900C9188A0005498A18526BD168024A37
:104350001160D36010BDC0467C0200207C010020AB
:10436000064B5B68002B05D0044B9B69002B03D1E7
:10437000022002E0012000E0002070477C020020C3
:10438000034B1B68013301D072B6FEE772B6FEE73D
:1043900010010020000000000000000000000000EC
:1043A0000B4A13681868203080F30988022080F3D4
:1043B0001488BFF36F8F3FBCAE4608BC04BC62B626
:1043C0001847C046C046C046C046C046C046C04664
:1043D0007C02002010B5031F802464041C60043B91
:1043E0001960043B02491960143B1A60403810BD43
:1043F000814300087047C04680225205034B1A6073
:10440000BFF34F8FBFF36F8F7047C04604ED00E0DE
:1044100072B6044A136801331360BFF34F8FBFF3C2
:104420006F8F704710010020064B1B68002B01D1D5
:1044300072B6FEE7013B034A1360002B00D162B65F
:104440007047C04610010020EFF3108072B670472D
:104450000020C04680F310887047C046000000006E
:10446000EFF309800E4B1A6820381060F0C0444604
:104470004D4656465F46F0C008B572B6FFF72EFFB0
:1044800062B60CBC116808681030F0C8A046A94696
:10449000B246BB4680F309882038F0C81847C046AA
:1044A0007C02002010B5FFF7CFFF0400FFF7DCFD12
:1044B000002803D080225205024B1A602000FFF72B
:1044C000C9FF10BD04ED00E010B5064B1868FA21D5
:1044D0008900FBF725FE0138034B18600722034BC8
:1044E0001A6010BD1401002014E000E010E000E0AC
:1044F00010B50A4B1A68FF2109040A431A601A68AA
:10450000FF2109060A431A60FFF7DEFF0022044B71
:104510001A60FFF745FFFFF733FFC04620ED00E0CC
:104520001001002010B5114A530708D0D11D0723F0
:104530009943C0231B015B1A9B180A0001E0C023AA
:104540001B010B490A6000204860D318083B072470
:10455000A3438B6058601860981A50601360C8605D
:10456000086180231B064B6110BDC046A8020020D5
:10457000A80E002010B5124B00E013001A6882420A
:10458000FBD35C681919884203D1416861185960EE
:104590001800446801198A420CD1094989688A4285
:1045A00006D05268A21842601A681268026002E0DF
:1045B000016000E00260984200D0186010BDC04663
:1045C000A80E002070B50400FFF746FD2D4B9B6838
:1045D000002B01D1FFF7A6FF2A4B5B69234242D192
:1045E000002C09D00834630706D007239C43083405
:1045F000234201D072B6FEE7002C36D0214B1B6956
:104600009C4234D81F4B1D6801E02B0015006A68DE
:10461000944202D92A68002AF7D11A4A9268954230
:1046200027D01E6808362A681A606B681B1B102B7F
:1046300008D92819420701D072B6FEE743606C60C2
:10464000FFF798FF6A680F490B699B1A0B61C968ED
:104650008B4201D20B49CB600A4B5B691A436A60FB
:1046600000232B6006E0002604E0002602E000267E
:1046700000E00026FFF77AFD730701D072B6FEE76F
:10468000300070BDA80E002070B5002825D00500B0
:10469000083D6B68114A526914001C4001D172B682
:1046A000FEE7010008390968002901D072B6FEE76B
:1046B000002C12D0002910D1083804009343436025
:1046C000FFF7CAFC6368054A11698C4663441361AD
:1046D0002800FFF74FFFFFF749FD70BDA80E00202F
:1046E00010B500F0F7F90120FFF7F6FAFBE7C04636
:1046F00030B587B001A8074903000A0032CA32C3A7
:1047000012CA12C30021FFF7CDFA034B186007B09D
:1047100030BDC04690500008E410002070B588B04D
:104720001A4BD96A04200143D962DA6A0240009226
:10473000009AD96A7C300143D962DA6A0240019258
:10474000019ADA6A01252A43DA62DB6A2B40029376
:10475000029BA026F605002220213000FBF7C6FFB1
:1047600080239B0103930A4B04930024059403A91F
:104770000848FBF7F1FE2023039304950594069463
:1047800003A93000FBF7E8FE08B070BD001002403E
:10479000000021100008005010B50268024B9A4238
:1047A00001D1FBF763FE10BD00140140FEE7C046D7
:1047B00000B59DB02F490B682F4A1340802000019F
:1047C00003430B602D4B196D0A401A6505230E93A8
:1047D000A023DB020F9380235B001093FE3B189312
:1047E00080235B02199380235B031A9380231B04AD
:1047F0001B930EA8FDF7E2F9002803D0A221204860
:10480000FFF7D4FF0F2309930C3B0A9300230B936C
:104810000C930D93012109A8FDF7F6FC002803D0A5
:10482000B0211748FFF7C2FF622300935E3B049359
:1048300080235B020193002308936846FDF704FE82
:10484000002803D0BA210E48FFF7B0FFFDF7B6FDF0
:10485000FA218900FBF764FCFBF752FE0420FBF70A
:104860006BFE0022032101204042FBF70DFE1DB02C
:1048700000BDC04600700040FFE7FFFF001002408F
:10488000DC50000810B5FBF7E1FDFFF791FFFFF7E3
:1048900045FF00F0CFF800F005F8FFF729FFFFF71C
:1048A000FBF9FEE710B50B480B4B03600023436098
:1048B0007F2282608032C260036143618361C36191
:1048C000FEF712F8002803D04B210448FFF76EFFD3
:1048D00010BDC046E810002000280040EC50000841
:1048E0000268054B9A4205D1044A136D8021C90222
:1048F0000B4313657047C04600280040001002407B
:1049000010B50E4B596B01220A435A639A6B8021F2
:1049100049050A439A630022002105204042FBF723
:10492000B3FD0022032102204042FBF7ADFD00222F
:10493000032101204042FBF7A7FD10BD00100240FB
:1049400000B587B0010000221620FBF79DFD162060
:10495000FBF7CCFD114A516B20230B43536369468F
:1049600001A8FDF751FDFDF73FFD0D49FBF7D8FB11
:10497000431E0C480C4A02600C4AC260436000238C
:1049800003618360FEF746F8002803D10548FEF76F
:104990005BF800E0012007B000BDC04600100240F7
:1049A00040420F000C11002000140140E7030000FA
:1049B00010B5FFF799F910BD10B50248FEF758F889
:1049C00010BDC0460C11002010B50248FCF796FF40
:1049D00010BDC046E0130020104B1A68802149002A
:1049E0000A431A60D9680E4A0A40DA6019680D4A0B
:1049F0000A401A609A6801218A439A6019680A4A33
:104A00000A401A60D968094A0A40DA6000221A612D
:104A100080221205064B9A607047C0460010024083
:104A20000C40FF88F6FFF6FEFFFFFBFFFFFF02FFD3
:104A300000ED00E010B50E480E4B0360E1235B0271
:104A4000436080235B0583600023C36003610C2205
:104A500042618361C3610362436200220021FEF769
:104A600015FB002803D04E210348FFF79FFE10BD21
:104A70004411002000440040FC500008F0B587B00D
:104A80000268124B9A421FD1114A936B802189020E
:104A90000B4393630224019402940023039303279E
:104AA000049704260596A025ED0501A92800FBF72B
:104AB00053FD0C23019302940B3B0393049705963B
:104AC00001A92800FBF748FD07B0F0BD00440040F5
:104AD0000010024010B5094C002209492000FEF7E1
:104AE0006FFC08492000FEF787FC07492000FEF70D
:104AF0002BFC2000FEF78AFC10BDC046B41100203C
:104B000040010020D800002018010020002070473C
:104B10000020704710B50100044C2000FEF72AFC6D
:104B20002000FEF72FFC002010BDC046B41100206D
:104B300010B5064C002206492000FEF70FFC05497F
:104B40002000FEF717FC002010BDC046B411002065
:104B5000DC130020D813002010B5FFF729FE10BD8C
:104B600010B50268084B9A420DD1084A936B802118
:104B700009040B439363002200211F20FBF784FCF0
:104B80001F20FBF7B3FC10BD005C0040001002408A
:104B900010B501008B239B00C058ED31FF31FEF7AB
:104BA00053FC10BD10B58B239B00C458CA00521A89
:104BB0009300C3181933FF331A682000FEF778FCFE
:104BC00010BDC04610B58B239B00C458CA00521AB2
:104BD0009300C3189A6B2000FEF7A6FC10BDC046D8
:104BE00010B58B239B00C058FEF73AFD10BDC046A0
:104BF00070B505008B24A40001210059FEF718FDB3
:104C00002859FEF7F1FC70BD10B504008B239B0002
:104C1000C058FEF711FDA369002B04D0024A1169A8
:104C200006230B43136110BD00ED00E010B5040036
:104C30008369002B06D0064A136906218B43136152
:104C4000FFF78AFF8B239B00E058FEF701FD10BDA4
:104C500000ED00E070B504001F488B239B00C4509A
:104C60000C3BE0501D4B036008234360022282602E
:104C70000023C36002618361C3610362FBF73CFDF3
:104C8000002804D0922149001548FFF78FFD8825A0
:104C9000AD001823002200216059FCF703FF5823C0
:104CA000002280216059FCF7FDFEC02300228121F3
:104CB0006059FCF7F7FE88235B0000220121605950
:104CC000FCF7F0FE605980235B0000228221FCF794
:104CD000E9FE002070BDC046E0130020005C0040EB
:104CE0000C51000810B588239B00C058FBF772FDDB
:104CF000002802D0022802D003E0002002E00120B8
:104D000000E0022010BDC04610B514001A00882330
:104D10009B00C0582300FBF785FD002802D0022825
:104D200002D003E0002002E0012000E0022010BDDC
:104D300010B588239B00C058FBF730FF002802D035
:104D4000022802D003E0002002E0012000E002205F
:104D500010BDC04610B588239B00C058FCF73EF933
:104D6000002802D0022802D003E0002002E0012047
:104D700000E0022010BDC04610B588239B00C0583B
:104D8000FCF790F9002802D0022802D003E00020AE
:104D900002E0012000E0022010BDC04688239B00F5
:104DA000C0584AB2002A09DAA23BFF3B1940CB00A7
:104DB000591A8B00C3182A33187808E07F2319404A
:104DC000CA00511A8B00C3180B33FF331878704791
:104DD00010B588239B00C058FBF708FD002802D0BF
:104DE000022802D003E0002002E0012000E00220BF
:104DF00010BDC04610B58824A4000059FCF7DCF9AA
:104E0000002802D0022802D003E0002002E00120A6
:104E100000E0022010BDC04610B58824A40000594F
:104E2000FBF7B8FF002802D0022802D003E00020E0
:104E300002E0012000E0022010BDC04610B588232A
:104E40009B00C058FCF7C0F810BDC0460048704732
:104E5000C00E00207047C04612230B8000487047E8
:104E60002801002004230B80014814307047C046FD
:104E70002801002010B50A00002804D10549064881
:104E8000FEF7A0FE03E003490348FEF79BFE01483E
:104E900010BDC046101600202051000810B50A00B1
:104EA000034C21000348FEF78DFE200010BDC046D4
:104EB000101600203851000810B50A00002804D14F
:104EC00005490648FEF77EFE03E003490348FEF766
:104ED00079FE014810BDC046101600204C51000854
:104EE00010B50A00002804D105490648FEF76AFEFD
:104EF00003E003490348FEF765FE014810BDC046C4
:104F0000101600205C51000810B50A00002804D1DA
:104F100005490648FEF756FE03E003490348FEF73D
:104F200051FE014810BDC04610160020685100080F
:104F30000D488546002103E00C4B5B58435004317B
:104F40000B480C4B42189A42F6D30B4A02E000235E
:104F500013600432094B9A42F9D3FFF73DFD00F08C
:104F600011F8FFF78FFCFEE70020002088510008B1
:104F7000000000205C0100205C01002010180020CF
:104F8000FEE700000E4B70B500251E000D4CE41A24
:104F9000A410A54204D0AB00F35898470135F8E7B8
:104FA00000F016F8084B00251E00084CE41AA41067
:104FB000A54204D0AB00F35898470135F8E770BD1F
:104FC0008051000880510008805100088451000879
:104FD000F8B5C046F8BC08BC9E467047F8B5C04658
:084FE000F8BC08BC9E467047B6
:104FE800302D0008442D00085C2D0008C02D000855
:104FF800902D0008C02D0008C02D0008C02D000805
:10500800A82D0008E62D0008FE2D0008162E000821
:105018008C2E00084E2E00088C2E00088C2E0008BE
:105028008C2E0008662E0008103800080E3700087D
:10503800203700084E3700081038000810380008DC
:10504800D0370008EE3700085C3700086E370008D4
:105058008037000892370008A4370008B6370008E0
:10506800283A0008343A00083A3A00082E3A00086C
:105078003A3A0008163A0008103A00083A3A000886
:10508800223A00081C3A0008D0500008E1460008FF
:105098000000000000000000800000000304060873
:1050A8000C10182030000000000000000000000074
:1050B80001020304060708090000000001020304B6
:1050C80049444C450000000064656661756C745481
:1050D80061736B002E2E2F5372632F6D61696E2ED4
:1050E800630000002E2E2F5372632F7274632E6399
:1050F800000000002E2E2F5372632F757361727497
:105108002E6300002E2E2F5372632F757362645F17
:10511800636F6E662E63000053544D333220566918
:10512800727475616C20436F6D506F72740000006B
:1051380053544D6963726F656C656374726F6E6901
:10514800637300003030303030303030303031412F
:105158000000000043444320436F6E666967000007
:1051680043444320496E74657266616365000000BC
:0851780000B1FF7F01000000FF
:04518000E90000083A
:04518400C10000085E
:1051880009024300020100C03209040000010202C2
:105198000100052400100105240100010424020275
:1051A8000524060001070582030800100904010010
:1051B800020A0000000705010240000007058102FD
:1051C8004000000009024300020100C03209040047
:1051D800000102020100052400100105240100015C
:1051E80004240202052406000107058203080010B2
:1051F80009040100020A000000070501020002007C
:10520800070581020002000009074300020104C0EB
:105218003209040000010202010005240010010502
:105228002401000104240202052406000107058266
:10523800030800FF09040100020A00000007050135
:105248000240000007058102400000000A06000233
:105258000000004001000000A53200086532000887
:10526800E131000800000000393100081D31000854
:10527800A931000800000000000000000000000044
:10528800793100086D31000889310008993100082A
:10529800AAAAAAAA80841E00314B00080D4B000858
:1052A800114B0008154B00081201000202020040D1
:1052B80083044057000201020301000004030904AB
:1052C800594E0008654E00089D4E0008754E0008AE
:0C52D800B94E0008E14E0008094F000824
:0400000508004F316F
:00000001FF
